{
    "contractName": "addition",
    "abi": [
        {
            "inputs": [],
            "name": "add",
            "outputs": [
                {
                    "internalType": "int256",
                    "name": "",
                    "type": "int256"
                }
            ],
            "stateMutability": "view",
            "type": "function"
        }
    ],
    "bytecode": "60806040526032600055603260015534801561001a57600080fd5b5060c7806100296000396000f3fe6080604052348015600f57600080fd5b506004361060285760003560e01c80634f2be91f14602d575b600080fd5b60336045565b60405190815260200160405180910390f35b60008060015460005460569190605c565b92915050565b8082018281126000831280158216821582161715608957634e487b7160e01b600052601160045260246000fd5b50509291505056fea264697066735822122091e60250ea474eb9abeb9ee47412e0aabd989d321239eb19016564cc273afae964736f6c63430008130033",
    "sourcePath": "c:/Users/Pradeep Pradii/Desktop/Solidity/Solidity/Addition.sol",
    "compiler": {
        "name": "solc",
        "version": "0.8.19+commit.7dd6d404"
    },
    "functionHashes": {
        "add()": "4f2be91f"
    },
    "gasEstimates": {
        "creation": {
            "codeDepositCost": "39800",
            "executionCost": "44305",
            "totalCost": "84105"
        },
        "external": {
            "add()": "4504"
        }
    }
}